:100000000C944D06189518951895189518951895EF
:100010001895189518951895189518951895189578
:100020001895189518951895189518950C94080515
:100030001895189518951895189518951895189558
:100040001895189518951895189518951895189548
:1000500018951895202020202020202020202020C6
:10006000202020202D3D20205354454E4420524B2B
:100070002D313020203D2D0D0A2020202020202051
:100080004861726477617265207665722E20312E28
:10009000302C204669726D77617265207665722E0C
:1000A00020322E300D0A002D3D43544548E02020DB
:1000B000504B2D31303D2D002020205665722E20D2
:1000C000322E300054696D653A2000446174653AFF
:1000D0002000456E746572206164647265737328D4
:1000E000302E2E323535293A2000456E7465722047
:1000F00076616C756528302E2E323535293A200010
:1001000056616C75653A200054656D706572617456
:100110007572653A200053656E736F7220697320A3
:100120006E6F7420636F6E6E656374656400456EF8
:1001300074657220686F75723A2000456E7465723E
:10014000206D696E7574653A2000456E7465722085
:100150007365636F6E643A2000456E746572206447
:1001600061793A2000456E746572206D6F6E746817
:100170003A2000456E74657220796561723A2000FC
:030180000D0A0065
:100184001101B2039403019A0302A00304AE03090C
:100194009603019C0302A203049203199803019E8F
:1001A4000302A40304B00339A60301A80302AA03AB
:1001B40004AC03FB000028040A001204140417040E
:1001C40019041B041D041F04210423042504010035
:1001D4002E0509001D051F052105230525052705F5
:1001E40029052B052D0514006000720E060074000D
:1001F400000007B90AE311E00E94E10102ED06B92B
:10020400349BFECF04B115B108959A938A93902F2D
:10021400812F21D000EA1DD0092F1FD005E910E05D
:100224000E94E7018991999108958A93802F13D0B0
:1002340000EA13D00DE810E00E94E1010CD001EABD
:1002440008D00E945303802F0E942B03082F89910A
:1002540008950C9430030C942403FBDF082FF9DF7A
:100264000C942B039A938A93C801BC9AC49804C033
:1002740009E010E00E94E701FC010197EF2BC1F7B0
:10028400C49A8991999108950E94F306902FA0E051
:1002940081E00E942F07202F30E00AC0E92FE00FF1
:1002A400F0E010811053189FA00D1AE0819F802D5B
:1002B4000A95002342F0102F110F110BF901339707
:1002C4000E171F075CF70A2FE3E00C94FB060E944D
:1002D400F106402EA12F80E0B0E00023C9F094E69F
:1002E40002C0BB2311F4491658F0042D492F0E9473
:1002F4005F06102F105DEA2F58D0099F4018B1E017
:10030400092F4AE00E945F06902F002329F0E9CFCD
:1003140000E3E12F51D081E000E0A80FEA2F4CD098
:10032400082FE5E00C94F9060E94EF06D80180E05E
:10033400662411233AF40DE2E22F3ED081E0B19518
:10034400A195B0400A2F0B2B39F100E1402E07E2B2
:10035400502E02C0662019F4A415B5058CF08D0149
:10036400A2010E948D06102F105DE22F1ED0402F97
:1003740050E082010E946D06A01BB10B66246394B9
:1003840082014AE050E00E948D06280101E04016F7
:1003940000E0500624F0DECF00E30CD0839500E0AB
:1003A40009D0082FE7E00C94F706E80FF0E010837B
:1003B40083950895E22FE80FF0E0008308959801F3
:1003C40001501040232BD9F708959A938A93C801BA
:1003D40003C000ED10E0F3DFFC010197EF2BC9F738
:1003E4008991999108959A938A93902F812F1DD082
:1003F40000ED19D0092F1BD08991999108958A9302
:10040400802F13D000ED13D00DE810E00E94E1011D
:100414000CD001ED08D00E945303802F0E942B03BF
:10042400082F899108950C9430030C942403FBDF66
:10043400082FF9DF0C942B03AA938A93A02F02E0D0
:100444001FD000838F70805D81830AE3028301E003
:1004540017D003838F70805D84830AE3058300E0F3
:1004640016D0802F87FB16F410E02ED0082F0AD068
:1004740006838F70805D8783F0878991A9910895A1
:1004840006D0802F029539D0EA2FF0E00895B7CF37
:10049400192F282F902F0AD0802F8295807F092F23
:1004A40005D0042F080F822F912F08954AE00C9451
:1004B4005F069A938A93912F822F39D002E035D028
:1004C40001E030D001D098CF00E08DCFAA93A02FC7
:1004D40004E016D0108311D001830EE2028305E0FC
:1004E4000FD013830AD004830EE2058306E008D0FC
:1004F400168303D00783F087C1CF0F70005D089582
:10050400C6DF102F12951F70105DBECF9A938A9389
:10051400C801022F0CD006E008D005E003D004E0A7
:10052400D4DF6ACFD2DF082F02C0CFDF092FB0DFBC
:10053400102F0895C0982AD0B89A0CE114E029D05D
:10054400B89806EA25D0B09933C003E713E021D068
:1005540001E008959A938A93902FC098B89888E000
:10056400B89A01E015D090FB16F4B89801C0B89A77
:100574000EE00ED09695B099906801E709D006D0A8
:100584008A9571F7092F899199910895B8980AE08D
:1005940010E00C94E101CEDF002309F409C00AD075
:1005A40004E409D0D5CF0FEF06D0002309F0D0CF53
:1005B40000E008950CECCECF9A938A93902FBADF83
:1005C400002311F400E00EC0F5DF0EEBF4DF80E051
:1005D4000FEFF1DFE92FE80FF0E000838395893016
:1005E400B8F301E0D0CF0E94F306C950A02FDBDF9F
:1005F400002311F401E01DC00C2FDEDF002311F4F1
:1006040000E017C0888190E02A2F8C0142E050E07E
:100614000E948D060E949601A00F0EE2EA2FF0E0E0
:10062400008380FF02C005E301C000E301839283DD
:1006340002E0C75FE3E00C94FB06BB98BA98C3984A
:10064400C2980895BA98BB9828D0BB9A26D0BA9A73
:100654000895BB9A22D020D0BB9808959A938A9388
:10066400802F98E005C0BB9A880F16D0BA9A15D08F
:10067400092F9A95002321F087FBAEF7BB98F4CF9E
:10068400BB980AD0B39B02C08FEF01C080E0DEDFCD
:10069400082F899199910895BA9807E210E00C9473
:1006A400E1019A938A9380E098E0BB9806C0F7DF53
:1006B400880FB3998160CADFF0DF092F9A95002370
:1006C400BA9807E210E099F7EADFBA9AE1CF0FE0AF
:1006D40004BB00EF15D0003F09F442C00EEF10D068
:1006E4000E3F21F40DEF0CD00D3F19F003B300952C
:1006F40008950BEF05D00B3FC9F707EF04D0F6CFF1
:1007040002D003B3089505BB02E510E00C94E101A7
:10071400DEDF0023E9F70895E4E8F1E00C94AA068B
:1007240000E3089501E3089502E3089503E30895BF
:1007340004E3089505E3089506E3089507E308959F
:1007440008E3089509E3089501E4089502E408958F
:1007540003E4089504E408950AE2089503E2089581
:1007640000E00895112311F4939801C0939A929A8A
:100774000E94C705000092980CE114E00C94E1017A
:100784008A9A8B9A9298939809E911E014D010E010
:1007940000E325D001E30ED010D00FD010E008E321
:1007A4001ED015D00DE106D010E006E018D010E000
:1007B4000CE015C010E00C94E70110E000E30FD04A
:1007C40002EC15E0DBCF03D001E310E0F4CF10E03E
:1007D40001E005C0112309F0005C10E00068C2CFFD
:1007E40011E0FDCFAA93A02F02C0A395F9DFEA2F51
:1007F400F0E000810023C9F7A99108959A938A93A0
:10080400C80103C00591CF01EBDFFC010491002373
:10081400C9F7899199910895E8EBF1E00C94AA063F
:1008240000EC01C009EF0C94C70504EAFCCF00EB0F
:10083400FACF09E9F8CF02E9F6CF02E8F4CF08EFDE
:10084400F2CF00E8F0CF00E90E94C70508959A931B
:100854008A9390E074D12FD089F053D0003348F0BC
:100864000A3338F40E94F2039395903131F4CAD0DC
:1008740004C0883111F463D190E01BD0883459F757
:100884008991999108958A9316D029F03AD000530A
:100894000E940E040ED08834B9F731C08A930BD06D
:1008A40029F004E610E00E94340103D08834B9F73B
:1008B40026C00C948A030E946903802F00230895A4
:1008C4008A93F9DFD1F01DD0015329F00A9549F03C
:1008D4000A9569F011C002B304FF949A04FD949838
:1008E4000BC002B305FF959A05FD959805C002B3A8
:1008F40007FF979A07FD9798DCDF883411F78991F1
:1009040008950C948E03C2510C2F0E941E020C2FCA
:10091400075F0E94680204EC10E067D042D00BEC41
:1009240010E061D00C2F075F62D03BD0CE5E0895FB
:100934009A938A930EE211E018D0902F0BE311E002
:1009440014D0802F0AE411E013D00E945B0209E561
:1009540011E00BD0902F05E611E007D0802F03E7BC
:1009640011E006D00E9488028BCF3DD00C94410642
:1009740020D0202F182F092F089515D00AEE10E04B
:10098400F4DF102F082F0E940701B9CF0CD000E02C
:1009940011E029D0082F0E9417010E94060601D0F9
:1009A400AECF0C940E068A9302ED10E002D0802F95
:1009B40008950E94F405DACFC550BDD0002321F478
:1009C40006E111E010D00CC00E94D5020023E1F32F
:1009D4000C2F0E94F502002321F008E011E005D05D
:1009E400E0DFCB5F08950C94F405FDDF0C2F0C942D
:1009F400E40507EA10E00E94000404D008EB10E0CC
:100A04000C94000411E000E00C94EC038A93FA9334
:100A1400EA933A922A921A920A927A936A935A938E
:100A24004A933A932A931A930A938FB79FDFE2ED7E
:100A3400F1E00C94AA060BDF0FC025DF0DC02EDFFA
:100A44000BC03EDF09C05FDF07C072DF05C095DF62
:100A540003C09CDF01C0B0DF11D08FBF0991199191
:100A640029913991499159916991799109901990F4
:100A740029903990E991F9918991189500E6B7CFB9
:100A8400C3515DD010E000E0BFDF04E70E94F5022F
:100A9400002319F0025029F005C000E0009374000F
:100AA40001C049D004E749D00C2F065F0E941E0202
:100AB40010E006E0A9DF0C2F065F3FD0A3DF0E9401
:100AC40069031FDF002311F00E94F20311E003E029
:100AD4009BDF00E00E94FB002C2F0E9496010C2F4C
:100AE4002CD011E009E090DF01E00E94FB002C2FE4
:100AF4002B5F0E9496010C2F0B5F1FD00091790091
:100B040043E00E945F06442379F402B304FF949AFD
:100B140004FD949802B305FF959A05FD959802B3D8
:100B240007FF979A07FD9798E4E7F0E0058103959E
:100B34000583CD5E08950C94CD020C94F4030C94BB
:100B4400E5038C9A8D9A8F9A0E941F030E94CD050B
:100B54000E94C203F4DF0FE010E00E94DA057894EB
:100B6400EADF04E510E03FDF44DF88DF04EF11E053
:100B74000E94340106E017E20E94E70181DF00E0F1
:100B84000E94C7050EEC17E0F7CF0E94D505B99A6D
:100B9400C19AC1980895BD9ABE98BF9ABC9AC49A46
:100BA4000CE50DB908950FB9779BFECF0FB10895E9
:100BB40009B910BD549A539A579A08955D9BFECF74
:100BC4000CB908959A938A93902F80E002C01BD0A9
:100BD4008395E92FE80FF0E000810023C1F78991A4
:100BE400999108950E94F206C801A0E002C00BD0BA
:100BF400A395B0E0FC01EA0FFB1F04910023B9F7B1
:100C0400E4E00C94FA06DACFC4501C2F0E94690168
:100C14000C2FD8DFCC5F089500E811E0E3CF5F9B91
:100C2400FECF0CB108950E94F106902F812FB0E001
:100C340001C0B395F4DF402EA92FAB0F0A5011F079
:100C4400035041F400E0EA2FF0E0008300E811E0F3
:100C5400C9DF12C0042DD7DF2B2F30E0082F10E09E
:100C64000150104020173107EA2FF0E040820CF3C6
:100C7400B3959B0FE92F3083E5E00C94F906C4513A
:100C840014E10C2FD0DF0C2F0E944601CC5E089596
:100C940000008895FECF09EF0DBF00E00EBFCAEB40
:100CA400D0E00E940507002311F00E9415070E945E
:100CB400A3050E944A060C944A060024E8E0EA953B
:100CC40032F0001F001C0416D0F3041AF8CF001FE2
:100CD400402D00950895149F102D059F100D049F1D
:100CE400002D110D089500241124EFE0001F111FA1
:100CF400001C111C0416150610F0041A150AEA95B6
:100D0400AAF7001F111FA001009510950895519591
:100D1400419550400895FF27552312F4F160F7DF01
:100D2400112312F4F09507D00E947506F0FD03D04C
:100D3400F1FDEDCF08951195019510400895759139
:100D4400659155914591159011FA25903590089526
:100D5400F9DF041B10E003C0F4DF041B150B20E0D3
:100D640030E005C0ECDF041B150B260B370BB8F085
:100D740010FC17C045910590E00FF11F04171005F2
:100D840040E02407340758F436F404910024F101B8
:100D9400E01BF0090994E00FF11F25903590F10153
:100DA400099411F4D6F7F1CF31960EF0319650E054
:100DB40060E070E045914B3F48F089F34F3F29F0E4
:100DC4004E3F11F07591659155914591041B150B9A
:100DD400260B370B39F318F3E7CF6A925A924A92EB
:100DE400BA93AA939A938A9308956E805D804C80F7
:100DF400BB81AA8199818881F0E00FB6F894CE0F67
:100E0400DF1F0FBE089501E0089520E006D0E9F742
:100E14000895259102D0E9F708952D9301501040CB
:100E2400202F212B08958AEE91E0FC010591149165
:100E3400FC013296A591B491FC013496259134912C
:100E4400422F432B19F0F901E4DF01C0DEDF0696DF
:100E540011E0863F910748F30895E02F01C0E39520
:100E6400F0E010811123D9F7E01B0E2F0895456E91
:100E7400746572207461736B206E756D6265723A6D
:020E840020004C
:00000001FF
:00000001FF
