:101584008F268D271215E67FA012110DAF2612119A
:091594000DAF2712110D021627FC
:0213D5008F2562
:1013D7001215E67FA012110DAF2512110D12162757
:1013E7007F067E001215B61215E67FA112110D12A7
:0913F70011F88F26121627AF260B
:0114000022C9
:0816B200C2941215FDD294222E
:1015B600E4FDFCC3ED9FEE6480F8EC648098500770
:0715C6000DBD00010C80ECDB
:0115CD0022FB
:1015FD00EF4E6010EF1F70011EE4FDEDC394FA5025
:04160D00EF0D80F766
:0116110022B6
:0915CE00071200002302190405B4
:10159D008F618D621215E67FD012110DAF611211A0
:0915AD000DAF6212110D021627A8
:021401008F61F9
:101403001215E67FD012110DAF6112110D121627BE
:101413007F067E001215B61215E67FD112110D124A
:0914230011F88F62121627AF6266
:01142C00229D
:10142D007F08121401EF64446021754B07E54B14DE
:10143D00FF7411254BF8E6FD12159DD54BEFE4FD1C
:0B144D00FF12159D7D447F0812159DC5
:011458002271
:060C1E008B5D8A5E895F18
:100C24007F021214018F60E560C4540F2430AB5D61
:100C3400AA5EA95F1207A8E560540F2430AB5DAA31
:100C44005EA95F9000011207BA900002743A12077D
:100C5400BA7F011214018F60E560C4540F2430ABD5
:100C64005DAA5EA95F9000031207BAE560540F24E1
:100C7400309000041207BA900005743A1207BAE4DF
:100C8400FF1214018F60E56030E706E4FDFF1215E2
:100C94009DE560C4540F2430AB5DAA5EA95F90004B
:100CA400061207BAE560540F24309000071207BA01
:070CB400900008E40207BAFA
:060EF4008B5D8A5E895F40
:100EFA007F04121401EFC4540F2430AB5DAA5EA91B
:100F0A005F1207A8EF540F2430AB5DAA5EA95F9069
:100F1A0000011207BA900002742E1207BA7F051256
:100F2A001401EFC4540F2430AB5DAA5EA95F900090
:100F3A00031207BAEF540F24309000041207BA9034
:100F4A000005742E1207BA7F06121401EFC4540F5B
:100F5A002430AB5DAA5EA95F9000061207BAEF546F
:100F6A000F24309000071207BA900008E40207BA6B
:10163C00EF75F00A84C454F0FEEF75F00A84E5F0FF
:03164C002EFF224C
:1014FA008D2A8B2B12163CAD077F0212159DAF2A3F
:10150A0012163CAD077F0112159DAF2B12163CAD8A
:06151A0007E4FF02159D2D
:101484008F2A8D2BAF0312163CAD077F0612159DD4
:10149400AF2B12163CAD077F0512159DAF2A12160D
:0814A4003CAD077F0402159D19
:1014AC00C2827F387E001215B6D2827F067E001271
:1014BC0015B6A28292097F237E001215B62009046C
:0614CC007F0180027F0099
:0114D20022F7
:021241008F6FAD
:10124300D282E4F570C282E56F30E004D28280027C
:10125300C282E4FFFE1215B6E56FC313F56F308249
:1012630005436F808003536F7F7F057E001215B6A1
:0D127300D2820570E570D3940740CAAF6FBA
:01128000224B
:101612001214ACEF7002FF227FCC1212417F4412EF
:0516220012417F0122CE
:0E1682007FFF121241EF60037F01227F0022E2
:0612FD008B6B8A6C896D09
:101303001214ACEF7002FF227FCC1212417FBE1287
:101313001241E4F56E7FFF121241AB6BAA6CA96D0B
:10132300856E82758300EF1207BA056EE56EC3946E
:051333000940E27F010A
:011338002292
:060F7A008B5D8A5E895FB9
:100F8000121682EF70037F01227B007A00796012D3
:100F900012FDEF7002FF2275690085616AE56A75CE
:100FA0006A00F56975690085606AE569C313FEE545
:100FB0006A13FFAB5DAA5EA95F120A99AB5DAA5ED8
:100FC000A95F8F82758300742E1207BAE56A30E03C
:100FD000047E3580027E30EFF582758300A3AB5D21
:100FE000AA5EA95FEE1207BA8F82758300A3A3E4FD
:050FF0001207BA7F02A8
:010FF50022D9
:0516C900D281D2802255
:1015E600D280D2817F017E001215B6C2817F017E34
:0715F600001215B6C28022AD
:10162700C2817F017E001215B6D2807F017E001233
:0516370015B6D281226E
:02110D008F63EE
:10110F00756408AF641564EF6025E56330E704D2BA
:10111F00818002C281E56325E0F563D2807F017E85
:10112F00001215B6C2807F017E001215B680D4D290
:10113F0081D2807F017E001215B63081057563FF65
:10114F008003E4F5637F017E001215B6C280AF63A2
:01115F00226D
:1011F800E4F563756408D281AF641564EF602CD29E
:10120800807F017E001215B6E56325E0F563308125
:101218000543630180035363FE7F017E001215B608
:10122800C2807F017E001215B680CDD2807F017EFC
:08123800001215B6C280AF637D
:01124000228B
:1010610075A0F07F037E001215B6E5A0B4F0037FF2
:10107100002275A0FE7F037E001215B6E5A064FE76
:101081006002802E75A0FD7F037E001215B6E5A0DB
:1010910064FD6002801C75A0FB7F037E001215B603
:1010A100E5A064FB6002800A75A0F77F037E001251
:0710B10015B6E5A0F4FF22D3
:0716C200121061EF70FA2223
:100FF600EF120824103111103A1210431410581829
:10100600103421103D22104624102E28103741108E
:101016004042104944105B48104C81104F821052D8
:10102600841055880000105E7F00227F01227F0217
:10103600227F03227F04227F05227F06227F07224A
:101046007F08227F09227F0A227F0B227F0C227FC4
:0B1056000D227F0E227F0F227F102250
:04156800E4FD7F30EF
:10156C00ED7004C2B38002D2B3D2B21216BA00C26A
:08157C00B27F387E000215B6B3
:10116000C2B2C2B37F717E121215B61215687F3EED
:101170007E021215B61215687F4F7E001215B61248
:1011800015687F4F7E001215B6E4FD7F3812156C8E
:10119000E4FD7F0112156C7F587E011215B6E4FD47
:0C11A0007F0612156CE4FD7F0C02156C3C
:0E169000E4FD7F0112156C7F3E7E020215B64E
:0F167300ED600474402FFF430780E4FD02156C07
:0516CE007D0102156C16
:101520008B688A69896AAB68AA69A96A12078F60A1
:1015300013056AE56A7002056914F912078FFF1234
:0515400016CE80E2223E
:1010B800EFB40A00504E9010C5F82828730210E3C8
:1010C8000210E70210EB0210EF0210F30210F70211
:1010D80010FB0210FF0211030211077FC080227F5C
:1010E800F9801E7FA4801A7FB080167F9980127FB6
:1010F80092800E7F82800A7FF880067F8080027F40
:05110800901216BA224E
:1009600025730A00456E74657220686F75723A20AF
:100970000025627500456E746572206D696E757430
:10098000653A2000456E746572207365636F6E640E
:100990003A2000456E746572206461793A20004502
:1009A0006E746572206D6F6E74683A2000456E74C7
:1009B000657220796561723A2000456E7465722017
:1009C000616464726573733A2000456E74657220C9
:1009D00076616C756528302E2E323535293A200027
:1009E00056616C75653A202562750A0053656E7311
:1009F0006F72206973206E6F7420636F6E6E656313
:100A00007465640A00456E746572207461736B20AE
:100A10006E756D6265723A00202020202020202013
:100A200020202020202020202D3D20205354454EE2
:100A30004420524B2D313020203D2D0A0020202013
:100A4000202020204861726477617265207665728B
:100A50002E20312E302C204669726D776172652010
:100A60007665722E20312E300A002D3D43544548C4
:100A7000E02020504B2D31303D2D002020205665A8
:100A8000722E20312E300000000000000000000017
:090A90000000000000000000005D
:0E15D7000908000000000000000000011100E3
:1011AC00E4F524F525121690E5246448603D1210F0
:1011BC00618F24E52460F1AF24120FF6EFD394096C
:1011CC005017EF2430FF1216CE0525E525B410116B
:1011DC007D01E4FF1216738008E524B4180312167F
:0B11EC00901216C2E4FF1216BA80BD7C
:0111F70022D5
:10154500E4F524121690E524644860161210618FA4
:1015550024E52460F1AF24120FF61210B81216C25A
:0215650080E420
:011567002261
:10000300E4F524E524644860151210618F24E52487
:0E00130060F17F647E001216B21216C280E504
:0100210022BC
:10136F00E4F524E524644860291210618F24E524F4
:10137F0060F1AF24120FF6EF24FE600B14600C2403
:10138F0002700AB2908006B2918002B2B51216C2F4
:02139F0080D1FB
:0113A1002229
:101339007B007A007924120C1E7B007A00792D1229
:101349000EF4754E00754F007550247BFF7A0979AC
:1013590060120088754E00754F0075502D7BFF7A1D
:0613690009796002008812
:100B6A007BFF7A097964120088752D00752E00754D
:100B7A002F247BFF7A0979711204047BFF7A0979A1
:100B8A0075120088752D00752E00752F257BFF7A4A
:100B9A000979711204047BFF7A0979841200887535
:100BAA002D00752E00752F267BFF7A0979711204A4
:100BBA0004AB26AD25AF241214FA7BFF7A09799388
:100BCA00120088752D00752E00752F277BFF7A0974
:100BDA0079711204047BFF7A09799F120088752DB6
:100BEA0000752E00752F287BFF7A0979711204048B
:100BFA007BFF7A0979AD120088752D00752E007574
:100C0A002F297BFF7A097971120404AB29AD28AF29
:040C1A002702148415
:1012C0007BFF7A0979BA120088752D00752E00759A
:1012D0002F247BFF7A0979711204047BFF7A097944
:1012E000CA120088752D00752E00752F257BFF7A98
:0D12F000097971120404AD25AF24021584A4
:101459007BFF7A0979BA120088752D00752E0075FF
:101469002F247BFF7A097971120404AF241213D552
:0B1479008F4E7BFF7A0979E0020088AB
:1013A200121612EF70087BFF7A0979EC802112166F
:1013B20082EF60FA7B007A007924120F7AEF6012D2
:1013C200754E00754F007550247BFF7A09796012C3
:0213D200008891
:0113D40022F6
:10128100784B7C007D007BFF7A0A796A7E007F11B2
:10129100120769785C7C007D007BFF7A0A797B7E8E
:1012A100007F0C1207697B007A00794B1215207DB3
:0F12B10001E4FF1216737B007A00795C021520AE
:100CBB00784B7C007D007BFF7A0A79877E007F0969
:100CCB0012076978547C007D007BFF7A0A79907E4D
:100CDB00007F091207697B007A00794B120C1EE525
:100CEB00526511605E8552117B007A007908120FF4
:100CFB007AEF24FE600924027008E4F508800312E1
:100D0B0016127B007A007954120EF4121690E4FD41
:100D1B00FF1216737B007A007908121520E4FD7F11
:100D2B00061216737B007A00794B1215207D017F1A
:100D3B00061216737B007A007954121520B290B20A
:030D4B0091B2B5AD
:010D4E002282
:03002300020D4F7C
:0D0D4F00C0E0C0F0C083C082C0D075D000ED
:100D5C00309877752D00752E00752F237BFF7A093F
:100D6C007971120404E52314B409005054900D87D2
:100D7C0075F003A4C58325F0C58373020DA2020D83
:100D8C00A7020DAC020DB1020DB6020DBB020DC0D7
:100D9C00020DC5020DCA1211AC8026121545802118
:100DAC00120003801C12136F801712133980121259
:100DBC000B6A800D1212C080081214598003121392
:0A0DCC00A27BFF7A0A790512008865
:0B0DD600D0D0D082D083D0F0D0E0322B
:100E6D007580FF7590FF75A0FF75B0FF7598507573
:100E7D008920758DFA758BFAD28ED299D2AC7BFF03
:100E8D007A0A79181200887BFF7A0A793D12008858
:100E9D007F127E001215B61216D81216C912142D15
:100EAD001216121211601216901212817BFF7A0A1D
:0C0EBD0079051200887F2C7E011216B20D
:100EC900C2AF120CBB121061120FF68F4AD3E54A5A
:100ED9006480948950051210B88005E4FF1216BA8F
:090EE900D2AF7F0A7E001215FD54
:020EF20080D5A9
:0816BA0012169ED2B4C2B42244
:0416D80075D55C2246
:0A169E008F86E5AA30E7FBAF862235
:0A0A99008E6B8F6C8B6D8A6E896F77
:100AA300E4F570F571C3E56B64809480501DAF70FD
:100AB30005708F82758300742D1207BAAE6BAF6C0D
:100AC3007CFF7DFF1207DC8E6B8F6CE56C456B60E2
:100AD3006F757227757310D3E5739400E5726480A4
:100AE30094804070E5717010E56C9573E5726480D5
:100AF300F8E56B6480984037AC72AD73AE6BAF6C46
:100B03001207EEEF2430AB6DAA6EA96FAD700570BE
:100B13008D827583001207BA7E00AC72AD73120723
:100B2300DCC3E56C9FF56CE56B9EF56B757101AEEF
:100B330072AF737C007D0A1207EE8E728F738097FB
:100B4300AB6DAA6EA96FAF7005708F827583007449
:100B5300301207BAAB6DAA6EA96F857082758300D8
:060B6300E41207BAAF70B6
:010B69002269
:03000000020DE10D
:0C0DE100787FE4F6D8FD758173020E28BF
:10069900E709F608DFFA8046E709F208DFFA803E43
:1006A90088828C83E709F0A3DFFA8032E309F60830
:1006B900DFFA8078E309F208DFFA807088828C8398
:1006C900E309F0A3DFFA806489828A83E0A3F6084C
:1006D900DFFA805889828A83E0A3F208DFFA804C26
:1006E90080D280FA80C680D4806980F280338010FD
:1006F90080A680EA809A80A880DA80E280CA803366
:1007090089828A83ECFAE493A3C8C582C8CCC583DD
:10071900CCF0A3C8C582C8CCC583CCDFE9DEE780AD
:100729000D89828A83E493A3F608DFF9ECFAA9F02C
:10073900EDFB2289828A83ECFAE0A3C8C582C8CC82
:10074900C583CCF0A3C8C582C8CCC583CCDFEADE9B
:10075900E880DB89828A83E493A3F208DFF980CCFD
:1007690088F0EF60010E4E60C388F0ED2402B404F6
:100779000050B9F582EB2402B4040050AF2323459D
:0607890082239006E973D3
:10078F00BB010689828A83E0225002E722BBFE0268
:09079F00E32289828A83E493229B
:1007A800BB010689828A83F0225002F722BBFE0130
:0207B800F3222A
:1007BA00F8BB010DE58229F582E5833AF583E8F075
:1007CA00225006E92582C8F622BBFE05E92582C821
:0207DA00F22209
:1007DC00EF8DF0A4A8F0CF8CF0A428CE8DF0A42E31
:0207EC00FE22EB
:1007EE00C2D5EC30E709B2D5E4C39DFDE49CFCEE26
:1007FE0030E715B2D5E4C39FFFE49EFE120877C31F
:10080E00E49DFDE49CFC800312087730D507C3E419
:06081E009FFFE49EFE2294
:10082400D083D082F8E4937012740193700DA3A363
:1008340093F8740193F5828883E473740293686077
:06084400EFA3A3A380DF77
:10002600E55A244EF8E6055A22784B301002784EEF
:10003600E475F00112091C02078F2009EB7F2ED20E
:10004600098018EF540F2490D43440D4FF300D0BA0
:10005600EF24BFB41A0050032461FFE55B6002156C
:100066005B055EE55E7002055D30100D784BE4754C
:10007600F00112091CEF0207A80214D37403D21070
:100086008003E4C210F55A8B4B8A4C894DE4F55B2C
:10009600F55DF55EE55B60077F2012006180F57512
:1000A6005CFFC20AC209C20BC20CC20EC20FC21149
:1000B60012002FFF700D3010057F00120072AF5E28
:1000C600AE5D22B4255FC2D5C20D12002FFF24D02B
:1000D600B40A00501A75F00A785B30D50508B6FFE9
:1000E6000106C6A426F620D5047002D20C80D924B7
:1000F600CFB41A00EF5004C2E5D20D020272D20A42
:1001060080C6D20980C0D20B80BCD2D580BAD20EAE
:1001160080B47F20120061200B077401B55B00409C
:10012600F1120026FF12006102009AD211D20F804E
:1001360095120026FB120026FA120026F94A4B7089
:100146000679437A037BFF200B2EE55B602A7E004F
:100156008E8275830012084A60060EEE655C70F0AA
:10016600C2D5EBC0E0EAC0E0E9C0E0EE1202B9D0C9
:10017600E0F9D0E0FAD0E0FB12078FFF60AAEBC0EF
:10018600E0EAC0E0E9C0E0120061D0E02401F9D065
:10019600E03400FAD0E0FBE55C0460DCD55CD98095
:1001A600877BFF7A0279B5D20B809C791080027921
:1001B60008C20FC2118008D2D5790A8004790AC212
:1001C600D5E55C047002F55CE4FAFDFEFF1200263C
:1001D600FC7B08200A13120026FD7B1030090A1248
:1001E6000026FE120026FF7B20EC3382D592D550E6
:1001F60013C3E43009069FFFE49EFEE4200A039D34
:10020600FDE49CFCE4CBF8C20AEC700CCFCECDCC5E
:10021600E824F8F870F38017C3EF33FFEE33FEEDF2
:1002260033FDEC33FCEB33FB994002FB0FD8E9EBD3
:10023600300A05F8D0E0C448B20AC0E00AEC4D4ED8
:100246004F78207B0070C2EAB55C0040BCC0E0126B
:1002560002BBD0F0D0E0200A04C4C0E0C4B20AC099
:10026600F012004AD0F0D5F0EB02009A12082401F1
:10027600375301B15801084C01044201B54F01BD85
:0F0286004401BD49011D4301C35501A74601A70E
:100295004501A747036350010C2D01102E01332B97
:1002A500011423013120034C2A00CC480000012B06
:1002B5003F3F3F00790AA2D5200C14300E09B91032
:1002C500020404B9080104A2D5200F02500104203C
:1002D5000B68920BB55B005034C0E07F20300C19E1
:1002E5007F30A20B720F720E500F120312C20BC297
:1002F5000FC20EC2117F30800F300E03E9C0E0122D
:100305000061300E03D0E0F9D0E0B55BCC300E17BC
:100315007F30B9100C1200617F58300D077F78804F
:1003250003B90803120061300B057F2D0200617FC0
:10033500202011F87F2B200FF322920B80CF286EFF
:10034500756C6C2900D20A120026300AF8C20A78A8
:100355005B30D50108F60200CC2D504349581200F8
:10036500262403B405004001E490035E9312005275
:0D037500743A120052D20C755B040201B103
:10038200E53F30030104F82328242DF822782A308F
:100392000302782DE475F00112091C02078F60EC4C
:1003A200C5437002154214C543200304FF0216D34D
:1003B200782A74FFF5F002092CFF02164FE540601F
:1003C20006D540037F002220030F121662EF600859
:1003D2000543E5437002054222782A1209131207E7
:1003E2008FFF60E9782AE475F00112091C80DE12A1
:1003F20003C9EFC0E01203BBD0E040F380A0D203F8
:100402008002C2038B2A8A2B892CE4F541F53FF541
:1004120042F543754000C202C200C201C204120387
:100422008FFF7005AF417E0022B4253012038FFF8B
:1004320024D0B40A00500C75F00AC540A42540F53A
:100442004080E924CFB41A00EF5002C2E5020665EB
:10045200D20180D8D20080D4D20480D0EF1203BB64
:1004620050081203F1EF600E80A9EFC0E01203C939
:10047200D0E06F609EEF60741203A080A71203C9E0
:10048200EF6069E5407007054080031203C9EF6021
:100492001420040E120382E475F00112091CEF12FB
:1004A20007A8D540E6200404053F054180BA12039F
:1004B200BFEFC0E01203BBD0E050041203A0E4FF80
:1004C20020040E120382E475F00112091CEF1207D8
:1004D200A8EF70DA200404053F0541808BE54060F7
:1004E2000205401203F11203BFEF70C6300304E4A9
:1004F2001203A0E54160030204267EFF7FFF222053
:10050200041174FFFCFDFEFF12038212091312088C
:10051200F9053F020415D0E080D27900800A7910F3
:10052200800679088002790AD205E540600205401A
:10053200E9C0E01203F1EF60DD1203C9BF2D04D25E
:10054200028003BF2B091203F1EF60CA1203BFD06E
:10055200E0B40A028033B40802802EBF3027700252
:100562007408C205C0E01203BFD0E0BF7802800366
:10057200BF58160540D540028007D54004D20580F9
:100582000B741080197002740ABF000AEFF8E4FCC1
:10059200FDFEFF020618C0E0EF1203A0D0E0F9E46E
:1005A200FCFDFEFFE9C0E0ECC0E0EDC0E0EEC0E023
:1005B200EFC0E01203BFEFF8D0E0FFD0E0FED0E0E2
:1005C200FDD0E0FCD0F0E8604DB461004007B47BA0
:1005D200005002C2E524D0503DFA24F6500724F917
:1005E2005034240AFAEAB5F000502BCFA9F0A42F18
:1005F200FF92D5E9C5F0CEA4A2D53EFE92D5E9C5BB
:10060200F0CDA4A2D53DFD92D5E9C5F0CCA4A2D5EA
:0B0612003CFCC205808EE8C0E0200424
:10061D002A20050805413002031208EB120382124D
:10062D000913053F20000B20010DEE8FF01208CCB1
:10063D0080091208F98004EF1207A8D0E01203A078
:10064D00020415200410120382120913053FE5421E
:10065D008543F01208CC80E812082404DF530520EE
:10066D005804564C045242042E4805244F05284484
:10067D00047F43051C49052855050146050145051F
:0C068D000147045A2A06504E0000045E8B
:100DED00020E6DE493A3F8E493A34003F68001F2A1
:100DFD0008DFF48029E493A3F85407240CC8C33307
:100E0D00C4540F4420C8834004F456800146F6DFD5
:100E1D00E4800B01020408102040809015CEE47E82
:100E2D00019360BCA3FF543F30E509541FFEE493CA
:100E3D00A360010ECF54C025E060A840B8E493A391
:100E4D00FAE493A3F8E493A3C8C582C8CAC583CABC
:100E5D00F0A3C8C582C8CAC583CADFE9DEE780BE74
:0115E5000005
:10084A00BB010CE58229F582E5833AF583E0225063
:10085A0006E92582F8E622BBFE06E92582F8E222AD
:0D086A00E58229F582E5833AF583E49322C7
:10087700BC000BBE0029EF8DF084FFADF022E4CC65
:10088700F875F008EF2FFFEE33FEEC33FCEE9DEC2E
:10089700984005FCEE9DFE0FD5F0E9E4CEFD22ED74
:1008A700F8F5F0EE8420D21CFEADF075F008EF2FBE
:1008B700FFED33FD4007985006D5F0F222C398FDAF
:0508C7000FD5F0EA224C
:1008CC00BB010A89828A83F0E5F0A3F0225006F777
:0F08DC0009A7F01922BBFE06F3E5F009F3192274
:0E08EB00C3E49FFFE49EFEE49DFDE49CFC221E
:1008F900BB010789828A830209485005E9F8020980
:0A0909003CBBFE05E9F80209542288
:09091300E6FB08E6FA08E6F92209
:10091C00FAE6FB0808E6F925F0F618E6CA3AF622DC
:10092C00FAE6FB0808E625F0F9F618E63AFAF6229C
:1014D300EFB40A07740D1214DE740A309811A89938
:1014E300B8130CC2983098FDA899C298B811F63079
:0714F30099FDC299F5992251
:1016620010120B1216A8BF0D027F0A0214D3AF1973
:011672002255
:0516D3008F19D2122264
:10164F00EFC394094005EF940E4003BF2003D380EE
:03165F0001C322A2
:0C093C00ECF608EDF608EEF608EFF622E7
:0C094800ECF0A3EDF0A3EEF0A3EFF02222
:0C095400ECF208EDF208EEF208EFF222DF
:0A16A8003098FDAF99C2987E002231
:00000001FF
