:100000000C946806189518951895189518951895D4
:100010001895189518951895189518951895189578
:100020001895189518951895189518951895189568
:100030001895189518951895189518951895189558
:100040001895189518951895189518950C942305DA
:100050001895189518951895189518951895189538
:100060001895189518951895189518951895189528
:100070000000000000000000000000000000000080
:1000800000002020202020202020202020202020B0
:1000900020202D3D20205354454E4420524B2D31DD
:1000A0003020203D2D0D0A202020202020204861D6
:1000B000726477617265207665722E20312E302C45
:1000C000204669726D77617265207665722E2032E6
:1000D0002E300D0A00456E746572207461736B20BA
:1000E0006E756D6265723A20002D3D43544548E0BF
:1000F0002020504B2D31303D2D00202020566572A0
:100100002E20322E300054696D653A20004461740F
:10011000653A2000456E746572206164647265738F
:100120007328302E2E323535293A2000456E7465FD
:10013000722076616C756528302E2E323535293A5D
:10014000200056616C75653A200054656D706572CB
:1001500061747572653A200053656E736F72206921
:1001600073206E6F7420636F6E6E656374656400D8
:10017000456E74657220686F75723A2000456E7422
:100180006572206D696E7574653A2000456E746500
:1001900072207365636F6E643A2000456E746572F9
:1001A000206461793A2000456E746572206D6F6E2F
:1001B00074683A2000456E74657220796561723A00
:0501C00020000D0A0003
:1001C6001101D003B20301B80302BE0304CC030934
:1001D600B40301BA0302C00304B00319B60301BC99
:1001E6000302C20304CE0339C40301C60302C803D3
:1001F60004CA03FB000046040A0030043204350436
:10020600370439043B043D043F0441044304010020
:100216004905090038053A053C053E0540054205F5
:100226004405460548050A00000100009A938A9392
:10023600902F812F21D000EA1DD0092F1FD006E96B
:1002460010E00E94FD018991999108958A93802F6B
:1002560013D000EA13D004EA10E00E94F7010CD094
:1002660001EA08D00E947103802F0E944903082FDB
:10027600899108950C944E030C944203FBDF082FDA
:10028600F9DF0C9449039A938A93C801BC9AC498DF
:1002960004C009E010E00E94FD01FC010197EF2B6C
:1002A600C1F7C49A8991999108950E941B07C801C4
:1002B600B0E0A1E00E945B07202F0AC0FC01E20F1C
:1002C600F51F308130533A9FB00D3AE0A39FA02D21
:1002D6002A9522234AF0422F522F550F550BF8012B
:1002E60033974E175F0754F70B2FE4E00C9426075D
:1002F6000E941907502ED90180E044240023F1F012
:1003060094E602C0442011F4591680F0052D492FB9
:100316000E947A06102F105D30E0FD01E80FF31FF2
:1003260010838395099F501844244394092F4AE06B
:100336000E947A06902F002321F0E4CF00E30C936D
:1003460081E000E0A80FB01FFD010083082FE6E062
:100356000C9424070E9417072801D90180E090E039
:1003660011233AF40DE2F901008381E0519441949E
:10037600590A042D052951F100E1602E07E2702E7D
:1003860002C0992319F446145704A4F08201A3016C
:100396000E94A806102F105D90E0F901E80FF91FE2
:1003A60010838395402F50E083010E948806401AEF
:1003B600510A91E083014AE050E00E94A806380104
:1003C60001E0601600E070063CF0DBCF00E3F901C7
:1003D600E80FF91F0083839500E0A80FB01F0C9368
:1003E600082FE8E00C942207980101501040232BB7
:1003F600D9F708959A938A93C80103C002EF10E0D3
:10040600F3DFFC010197EF2BC9F7899199910895C4
:100416009A938A93902F812F1DD000ED19D0092F22
:100426001BD08991999108958A93802F13D000ED5E
:1004360013D004EA10E00E94F7010CD001ED08D0B9
:100446000E947103802F0E944903082F8991089505
:100456000C944E030C944203FBDF082FF9DF0C9437
:1004660049030E941B07D80102E023D00C938F702A
:10047600805DFD0181830AE3028301E01AD0FD015C
:1004860003838F70805D84830AE3058300E014D0C4
:10049600802F87FB16F410E030D0082F0ED0FD0118
:1004A60006838F70805D878300E00087E4E00C940C
:1004B600260702D0802F01C0B7CF02950F70005DCE
:1004C6000895192F282F902F0AD0802F8295807F8C
:1004D600092F05D0042F080F822F912F08954AE087
:1004E6000C947A069A938A93912F822F3AD002E03F
:1004F60036D001E031D001D094CF00E089CFBA9355
:10050600AA93D80104E016D01C93D8DF11960D9358
:100516000EE20D9305E009D00EE20D9306E005D03C
:1005260000E00C93A991B991089504D01D93C6DFFC
:100536000D930895C1DF102F12951F70105D089559
:100546009A938A93C801022F0CD006E008D005E0E2
:1005560003D004E0D3DF65CFD1DF082F02C0CEDFA2
:10056600092FAFDF102F0895DA982AD0D29A03E127
:1005760015E029D0D29801EC25D0CA9933C005E000
:1005860014E021D001E008959A938A93902FDA9887
:10059600D29888E0D29A02E015D090FB16F4D29851
:1005A60001C0D29A00E10ED09695CA99906804E8E7
:1005B60009D006D08A9571F7092F899199910895E6
:1005C600D2980BE010E00C94F701CEDF002309F47B
:1005D60009C00AD004E409D0D5CF0FEF06D0002316
:1005E60009F0D0CF00E008950CECCECF0E941B0797
:1005F600C801BADF002311F400E00FC0F5DF0EEBEF
:10060600F4DFA0E00FEFF1DFB0E0FC01EA0FFB1F23
:100616000083A395A930B0F301E0E4E00C9426072B
:100626000E9419072997D801D8DF002311F401E0A9
:100636001DC08E01DBDF002311F400E017C04880E7
:1006460055249D01820142E050E00E94A8060E94C6
:10065600AD01A00FB51D0EE20C9340FE02C005E3EE
:1006660001C000E3FD010183528202E02996E6E023
:100676000C942407D198D098D998D8980895D098F2
:10068600D19828D0D19A26D0D09A0895D19A22D03E
:1006960020D0D19808959A938A93802F98E005C028
:1006A600D19A880F16D0D09A15D0092F9A95002383
:1006B60021F087FBAEF7D198F4CFD1980AD0C99B29
:1006C60002C08FEF01C080E0DEDF082F899199918B
:1006D6000895D0980EE210E00C94F7019A938A934D
:1006E60080E098E0D19806C0F7DF880FC99981604D
:1006F600CADFF0DF092F9A950023D0980EE210E0AA
:1007060099F7EADFD09AE1CF0FE004BB00EF15D0EE
:10071600003F09F442C00EEF10D00E3F21F40DEF5A
:100726000CD00D3F19F003B3009508950BEF05D0DB
:100736000B3FC9F707EF04D0F6CF02D003B30895F5
:1007460005BB0FE510E00C94F701DEDF0023E9F7A7
:100756000895E6ECF1E00C94C50600E3089501E384
:10076600089502E3089503E3089504E3089505E375
:10077600089506E3089507E3089508E3089509E355
:10078600089501E4089502E4089503E4089504E455
:1007960008950AE2089503E2089500E008951123FA
:1007A60011F4939801C0939A929A0E94E70500006B
:1007B600929809EC14E00C94F7018A9A8B9A929815
:1007C60093980AE911E014D010E000E325D002E383
:1007D6000ED010D00FD010E008E31ED015D00EE1D9
:1007E60006D010E006E018D010E00CE015C010E0CE
:1007F6000C94FD0110E000E30FD005EB16E0DBCF13
:1008060003D002E310E0F4CF10E001E005C01123AD
:1008160009F0005C10E00068C2CF11E0FDCFBA938A
:10082600AA93D80102C01196F8DF0C910023D9F7DC
:10083600A991B99108959A938A93C80103C0059125
:10084600CF01EBDFFC0104910023C9F7899199914F
:100856000895EAEFF1E00C94C50600EC01C009EF3B
:100866000C94E70504EAFCCF00EBFACF09E9F8CFD0
:1008760002E9F6CF02E8F4CF08EFF2CF00E8F0CFB6
:1008860000E90E94E70508959A938A9390E077D14C
:100896002FD089F052D0003348F00A3338F40E9442
:1008A60010049395903131F4C7D004C0883111F407
:1008B60066D190E01BD0883459F7899199910895B3
:1008C6008A9316D029F039D000530E942C040ED0FA
:1008D6008834B9F773C08A930BD029F004E610E088
:1008E6000E94460103D08834B9F768C00C94A80367
:1008F6000E948703802F002308958A93F9DFD1F0A1
:100906001CD0015329F00A9549F00A9569F011C0E7
:1009160008B300FFC09A00FDC0980BC008B301FFE2
:10092600C19A01FDC19805C002B305FF959A05FD60
:100936009598DCDF883411F741C00C94AC036297BC
:100946008E010E94340216D106E011E068D043D031
:100956000DE011E062D006D10E9404063CD06296FA
:1009660008959A938A9300E711E018D0902F0DE727
:1009760011E014D0802F0CE811E013D00E9475020C
:100986000BE911E00BD0902F07EA11E007D0802F7A
:1009960005EB11E006D00E94A3028FCF3ED00C9447
:1009A6005C0621D0202F182F092F089516D00CE2AF
:1009B60011E0F4DF102F082F0E9419018991089584
:1009C6000CD002E411E029D0082F0E9429010E94D0
:1009D600230601D0F3CF0C942B068A9304E111E091
:1009E60002D0802F08950E940F06D9CF2597C0D038
:1009F600002321F408E511E010D00CC00E94F0029B
:100A06000023E1F38E010E941303002321F00AE480
:100A160011E005D0E0DF259608950C940F06FDDF62
:100A26008E010C94040609EE10E00E941E0404D008
:100A36000AEF10E00C941E0411E000E00C940A0486
:100A46008A93FA93EA933A922A921A920A927A939C
:100A56006A935A934A933A932A931A930A938FB7AF
:100A66009EDFE4E1F2E00C94C5060EDF0FC028DF3E
:100A76000DC031DF0BC041DF09C061DF07C071DF88
:100A860005C094DF03C09CDF01C0B0DF05ED10E0B8
:100A9600C4DF8FBF099119912991399149915991D3
:100AA600699179910990199029903990E991F99174
:100AB600899118958A93629762D010E000E0BEDFB4
:100AC60000E011E00E941303002319F0025029F000
:100AD60005C000E00093000101C04AD000E011E02B
:100AE60045D08E01FE0120E089E021938A95E9F741
:100AF6000E94340210E041D08E0138D09DDF0E9462
:100B060087031BDF002311F00E9410049E01275F5C
:100B16003F4F8901E9E7F0E049E050E00E940A070B
:100B260029D011E02AD01ED021D00091090143E03E
:100B36000E947A06442379F408B300FFC09A00FDA8
:100B4600C09808B301FFC19A01FDC19802B305FF21
:100B5600959A05FD9598E0E0F1E0018503950187FA
:100B660062962CCF8E01075F1F4F08950C941204D6
:100B76000C94E802F7DF0C94820206E05FCF0C9437
:100B86000304B89AB99A8D9A0E943D030E94ED0516
:100B96000E94E003F4DF0FE010E00E94FA0578946B
:100BA600E7DF02E810E039DF3EDF05ED10E035DF74
:100BB60004EF11E00E94460101E217E20E94FD01E6
:100BC60079DF03ED17E0FACF0E94F5058C9A949A27
:100BD60094980895BD9ABE98BF9ABC9AC49A0CE59B
:100BE6000DB908950FB9779BFECF0FB1089509B9D6
:100BF60010BD549A539A579A08955D9BFECF0CB92F
:100C0600089519D002C016D0A3950FD000810023F5
:100C1600D1F7E4E00C9426070ED002C00BD0A395C2
:100C260004D004910023D1F7F4CFB0E0FC01EA0F21
:100C3600FB1F0895E2CF0E941B07C801A0E008959C
:100C460024979E010E947B018E01DBDF2496089586
:100C560002EC11E0E1CF5F9BFECF0CB108950E943C
:100C66001507C801422E662403C0FD015082639415
:100C7600F2DF502E862C9924DC01A60DB91D0A50F0
:100C860011F0035029F49C9202EC11E0C5DF0EC06E
:100C9600052DD0DFE42DF0E031978E169F062CF35C
:100CA6005C926394860D991DFC019082EAE00C9497
:100CB6002007649724E18E01D2DF8E010E9458013D
:100CC6006496089500008895FECF09E40DBF01E003
:100CD6000EBFCAE4D2E00E943107002311F00E9441
:100CE60041070E94C4050E9465060C94650600240F
:100CF600E8E0EA9532F0001F001C0416D0F3041A4F
:100D0600F8CF001F402D00950895149F102D059FC4
:100D1600100D049F002D110D089500241124EFE0FD
:100D2600001F111F001C111C0416150610F0041AD2
:100D3600150AEA95AAF7001F111FA0010095109544
:100D460008955195419550400895FF27552312F473
:100D5600F160F7DF112312F4F09507D00E94900698
:100D6600F0FD03D0F1FDEDCF0895119501951040EA
:100D760008957591659155914591159011FA2590B3
:100D860035900895F9DF041B10E003C0F4DF041B5F
:100D9600150B20E030E005C0ECDF041B150B260B1D
:100DA600370BB8F010FC17C045910590E00FF11F06
:100DB6000417100540E02407340758F436F404916C
:100DC6000024F101E01BF0090994E00FF11F2590C2
:100DD6003590F101099411F4D6F7F1CF31960EF062
:100DE600319650E060E070E045914B3F48F089F362
:100DF6004F3F29F04E3F11F0759165915591459100
:100E0600041B150B260B370B39F318F3E7CFAF93FB
:100E1600BF93D80105900D9241505040D9F7BF912C
:100E2600AF9108959A928A927A926A925A924A92C7
:100E3600BA93AA939A938A930895998488847F8013
:100E46006E805D804C80BB81AA8199818881F0E0AB
:100E56000FB6F894CE0FDF1F0FBE089501E0089578
:100E660020E006D0E9F70895259102D0E9F7089524
:100E76002D9301501040202F212B08958CE292E0F3
:100E8600FC0105911491FC013296A591B491FC01E7
:100E9600349625913491422F432B19F0F901E4DF62
:100EA60001C0DEDF069612E08233910748F308950B
:100EB600F80101C0319620812223E1F7E01BF10BF6
:040EC6008F010895FB
:00000001FF
:00000001FF
